{
  "_format": "hh-sol-artifact-1",
  "contractName": "MockAggregatorProxy",
  "sourceName": "contracts/test/MockEACAggregatorProxy.sol",
  "abi": [
    {
      "inputs": [
        {
          "internalType": "uint8",
          "name": "_decimals",
          "type": "uint8"
        }
      ],
      "stateMutability": "nonpayable",
      "type": "constructor"
    },
    {
      "inputs": [
        {
          "internalType": "address",
          "name": "newOwner",
          "type": "address"
        }
      ],
      "name": "changeOwner",
      "outputs": [],
      "stateMutability": "nonpayable",
      "type": "function"
    },
    {
      "inputs": [],
      "name": "currentRoundId_",
      "outputs": [
        {
          "internalType": "uint80",
          "name": "",
          "type": "uint80"
        }
      ],
      "stateMutability": "view",
      "type": "function"
    },
    {
      "inputs": [
        {
          "internalType": "uint256",
          "name": "",
          "type": "uint256"
        }
      ],
      "name": "data_",
      "outputs": [
        {
          "internalType": "uint80",
          "name": "roundId",
          "type": "uint80"
        },
        {
          "internalType": "int256",
          "name": "answer",
          "type": "int256"
        },
        {
          "internalType": "uint256",
          "name": "timestamp",
          "type": "uint256"
        },
        {
          "internalType": "uint256",
          "name": "roundTimestamp",
          "type": "uint256"
        },
        {
          "internalType": "uint80",
          "name": "answeredInRound",
          "type": "uint80"
        }
      ],
      "stateMutability": "view",
      "type": "function"
    },
    {
      "inputs": [],
      "name": "decimals",
      "outputs": [
        {
          "internalType": "uint8",
          "name": "",
          "type": "uint8"
        }
      ],
      "stateMutability": "view",
      "type": "function"
    },
    {
      "inputs": [],
      "name": "decimals_",
      "outputs": [
        {
          "internalType": "uint8",
          "name": "",
          "type": "uint8"
        }
      ],
      "stateMutability": "view",
      "type": "function"
    },
    {
      "inputs": [],
      "name": "description",
      "outputs": [
        {
          "internalType": "string",
          "name": "",
          "type": "string"
        }
      ],
      "stateMutability": "pure",
      "type": "function"
    },
    {
      "inputs": [
        {
          "internalType": "uint256",
          "name": "roundId",
          "type": "uint256"
        }
      ],
      "name": "getAnswer",
      "outputs": [
        {
          "internalType": "int256",
          "name": "",
          "type": "int256"
        }
      ],
      "stateMutability": "view",
      "type": "function"
    },
    {
      "inputs": [
        {
          "internalType": "uint80",
          "name": "_roundId",
          "type": "uint80"
        }
      ],
      "name": "getRoundData",
      "outputs": [
        {
          "internalType": "uint80",
          "name": "roundId",
          "type": "uint80"
        },
        {
          "internalType": "int256",
          "name": "answer",
          "type": "int256"
        },
        {
          "internalType": "uint256",
          "name": "startedAt",
          "type": "uint256"
        },
        {
          "internalType": "uint256",
          "name": "updatedAt",
          "type": "uint256"
        },
        {
          "internalType": "uint80",
          "name": "answeredInRound",
          "type": "uint80"
        }
      ],
      "stateMutability": "view",
      "type": "function"
    },
    {
      "inputs": [
        {
          "internalType": "uint256",
          "name": "roundId",
          "type": "uint256"
        }
      ],
      "name": "getTimestamp",
      "outputs": [
        {
          "internalType": "uint256",
          "name": "",
          "type": "uint256"
        }
      ],
      "stateMutability": "view",
      "type": "function"
    },
    {
      "inputs": [],
      "name": "latestAnswer",
      "outputs": [
        {
          "internalType": "int256",
          "name": "",
          "type": "int256"
        }
      ],
      "stateMutability": "view",
      "type": "function"
    },
    {
      "inputs": [],
      "name": "latestRound",
      "outputs": [
        {
          "internalType": "uint256",
          "name": "",
          "type": "uint256"
        }
      ],
      "stateMutability": "view",
      "type": "function"
    },
    {
      "inputs": [],
      "name": "latestRoundData",
      "outputs": [
        {
          "internalType": "uint80",
          "name": "roundId",
          "type": "uint80"
        },
        {
          "internalType": "int256",
          "name": "answer",
          "type": "int256"
        },
        {
          "internalType": "uint256",
          "name": "startedAt",
          "type": "uint256"
        },
        {
          "internalType": "uint256",
          "name": "updatedAt",
          "type": "uint256"
        },
        {
          "internalType": "uint80",
          "name": "answeredInRound",
          "type": "uint80"
        }
      ],
      "stateMutability": "view",
      "type": "function"
    },
    {
      "inputs": [],
      "name": "latestTimestamp",
      "outputs": [
        {
          "internalType": "uint256",
          "name": "",
          "type": "uint256"
        }
      ],
      "stateMutability": "view",
      "type": "function"
    },
    {
      "inputs": [
        {
          "components": [
            {
              "internalType": "uint80",
              "name": "roundId",
              "type": "uint80"
            },
            {
              "internalType": "int256",
              "name": "answer",
              "type": "int256"
            },
            {
              "internalType": "uint256",
              "name": "timestamp",
              "type": "uint256"
            },
            {
              "internalType": "uint256",
              "name": "roundTimestamp",
              "type": "uint256"
            },
            {
              "internalType": "uint80",
              "name": "answeredInRound",
              "type": "uint80"
            }
          ],
          "internalType": "struct MockAggregatorProxy.Data",
          "name": "data",
          "type": "tuple"
        }
      ],
      "name": "mockSetData",
      "outputs": [],
      "stateMutability": "nonpayable",
      "type": "function"
    },
    {
      "inputs": [
        {
          "internalType": "int256",
          "name": "answer",
          "type": "int256"
        }
      ],
      "name": "mockSetValidAnswer",
      "outputs": [],
      "stateMutability": "nonpayable",
      "type": "function"
    },
    {
      "inputs": [],
      "name": "owner",
      "outputs": [
        {
          "internalType": "address",
          "name": "",
          "type": "address"
        }
      ],
      "stateMutability": "view",
      "type": "function"
    },
    {
      "inputs": [],
      "name": "version",
      "outputs": [
        {
          "internalType": "uint256",
          "name": "",
          "type": "uint256"
        }
      ],
      "stateMutability": "pure",
      "type": "function"
    }
  ],
  "bytecode": "0x608060405234801561001057600080fd5b50604051610ba8380380610ba883398101604081905261002f91610064565b600080546001600160a01b031960ff909316600160a01b02929092166001600160a81b0319909216919091173317905561008e565b60006020828403121561007657600080fd5b815160ff8116811461008757600080fd5b9392505050565b610b0b8061009d6000396000f3fe608060405234801561001057600080fd5b506004361061011b5760003560e01c806398dbf52b116100b2578063b5ab58dc11610081578063bc2a62af11610066578063bc2a62af1461040c578063f785ef7214610458578063feaf968c1461047d57600080fd5b8063b5ab58dc146103c5578063b633620c146103e957600080fd5b806398dbf52b146102dd5780639a6fc8f5146102f2578063a6f9dae11461039f578063ae560f09146103b257600080fd5b8063668a0f02116100ee578063668a0f02146101ef5780637284e4161461021c5780638205bf6a1461025b5780638da5cb5b1461029857600080fd5b8063313ce5671461012057806332869bc41461015657806350d25bcd146101a057806354fd4d50146101e8575b600080fd5b60005474010000000000000000000000000000000000000000900460ff165b60405160ff90911681526020015b60405180910390f35b600054610185907501000000000000000000000000000000000000000000900469ffffffffffffffffffff1681565b60405169ffffffffffffffffffff909116815260200161014d565b600080547501000000000000000000000000000000000000000000900469ffffffffffffffffffff16815260016020819052604090912001545b60405190815260200161014d565b60016101da565b6000547501000000000000000000000000000000000000000000900469ffffffffffffffffffff166101da565b604080518082018252600f81527f4d6f636b2041676772656761746f7200000000000000000000000000000000006020820152905161014d91906108c2565b600080547501000000000000000000000000000000000000000000900469ffffffffffffffffffff168152600160205260409020600201546101da565b6000546102b89073ffffffffffffffffffffffffffffffffffffffff1681565b60405173ffffffffffffffffffffffffffffffffffffffff909116815260200161014d565b6102f06102eb366004610935565b610503565b005b610368610300366004610968565b69ffffffffffffffffffff908116600090815260016020818152604092839020835160a0810185528154861680825293820154928101839052600282015494810185905260038201546060820181905260049092015490951660809095018590529194909390565b6040805169ffffffffffffffffffff968716815260208101959095528401929092526060830152909116608082015260a00161014d565b6102f06103ad36600461098c565b610626565b6102f06103c03660046109c2565b610714565b6101da6103d33660046109c2565b6000908152600160208190526040909120015490565b6101da6103f73660046109c2565b60009081526001602052604090206002015490565b61036861041a3660046109c2565b60016020819052600091825260409091208054918101546002820154600383015460049093015469ffffffffffffffffffff94851694929391921685565b60005461013f9074010000000000000000000000000000000000000000900460ff1681565b610368600080547501000000000000000000000000000000000000000000900469ffffffffffffffffffff908116825260016020818152604093849020845160a081018652815485168082529382015492810183905260028201549581018690526003820154606082018190526004909201549094166080909401849052919490939290565b60005473ffffffffffffffffffffffffffffffffffffffff1633146105af576040517f08c379a000000000000000000000000000000000000000000000000000000000815260206004820152602860248201527f4d6f636b41676772656761746f7250726f78793a206f6e6c79206f776e65722060448201527f63616e2063616c6c00000000000000000000000000000000000000000000000060648201526084015b60405180910390fd5b80600160006105c16020840184610968565b69ffffffffffffffffffff16815260200190815260200160002081816105e791906109db565b506105f790506020820182610968565b600060156101000a81548169ffffffffffffffffffff021916908369ffffffffffffffffffff16021790555050565b60005473ffffffffffffffffffffffffffffffffffffffff1633146106cd576040517f08c379a000000000000000000000000000000000000000000000000000000000815260206004820152602860248201527f4d6f636b41676772656761746f7250726f78793a206f6e6c79206f776e65722060448201527f63616e2063616c6c00000000000000000000000000000000000000000000000060648201526084016105a6565b600080547fffffffffffffffffffffffff00000000000000000000000000000000000000001673ffffffffffffffffffffffffffffffffffffffff92909216919091179055565b60005473ffffffffffffffffffffffffffffffffffffffff1633146107bb576040517f08c379a000000000000000000000000000000000000000000000000000000000815260206004820152602860248201527f4d6f636b41676772656761746f7250726f78793a206f6e6c79206f776e65722060448201527f63616e2063616c6c00000000000000000000000000000000000000000000000060648201526084016105a6565b600080547501000000000000000000000000000000000000000000900469ffffffffffffffffffff169060156107f083610a84565b82546101009290920a69ffffffffffffffffffff8181021990931691831602179091556040805160a08101825260008054750100000000000000000000000000000000000000000090048416808352602080840197885242848601818152606086019182526080860184815293855260019283905295909320935184547fffffffffffffffffffffffffffffffffffffffffffff000000000000000000009081169188169190911785559751908401559251600283015551600382015590516004909101805490941691161790915550565b600060208083528351808285015260005b818110156108ef578581018301518582016040015282016108d3565b81811115610901576000604083870101525b50601f017fffffffffffffffffffffffffffffffffffffffffffffffffffffffffffffffe016929092016040019392505050565b600060a0828403121561094757600080fd5b50919050565b69ffffffffffffffffffff8116811461096557600080fd5b50565b60006020828403121561097a57600080fd5b81356109858161094d565b9392505050565b60006020828403121561099e57600080fd5b813573ffffffffffffffffffffffffffffffffffffffff8116811461098557600080fd5b6000602082840312156109d457600080fd5b5035919050565b81356109e68161094d565b81547fffffffffffffffffffffffffffffffffffffffffffff000000000000000000001669ffffffffffffffffffff8216178255506020820135600182015560408201356002820155606082013560038201556080820135610a478161094d565b6004820180547fffffffffffffffffffffffffffffffffffffffffffff000000000000000000001669ffffffffffffffffffff8316179055505050565b600069ffffffffffffffffffff80831681811415610acb577f4e487b7100000000000000000000000000000000000000000000000000000000600052601160045260246000fd5b600101939250505056fea2646970667358221220937e79cd6464933ed5b4fce685241def28f14d35f804f42da42ba55ecd5c67a564736f6c634300080a0033",
  "linkReferences": {},
  "deployedLinkReferences": {}
}