{
  "_format": "hh-sol-artifact-1",
  "contractName": "AggregatorProxy",
  "sourceName": "contracts/test/AggregatorProxy.sol",
  "abi": [
    {
      "inputs": [
        {
          "internalType": "address",
          "name": "aggregatorAddress",
          "type": "address"
        }
      ],
      "stateMutability": "nonpayable",
      "type": "constructor"
    },
    {
      "anonymous": false,
      "inputs": [
        {
          "indexed": true,
          "internalType": "address",
          "name": "previous",
          "type": "address"
        },
        {
          "indexed": true,
          "internalType": "address",
          "name": "latest",
          "type": "address"
        }
      ],
      "name": "AggregatorConfirmed",
      "type": "event"
    },
    {
      "anonymous": false,
      "inputs": [
        {
          "indexed": true,
          "internalType": "address",
          "name": "current",
          "type": "address"
        },
        {
          "indexed": true,
          "internalType": "address",
          "name": "proposed",
          "type": "address"
        }
      ],
      "name": "AggregatorProposed",
      "type": "event"
    },
    {
      "anonymous": false,
      "inputs": [
        {
          "indexed": true,
          "internalType": "int256",
          "name": "current",
          "type": "int256"
        },
        {
          "indexed": true,
          "internalType": "uint256",
          "name": "roundId",
          "type": "uint256"
        },
        {
          "indexed": false,
          "internalType": "uint256",
          "name": "updatedAt",
          "type": "uint256"
        }
      ],
      "name": "AnswerUpdated",
      "type": "event"
    },
    {
      "anonymous": false,
      "inputs": [
        {
          "indexed": true,
          "internalType": "uint256",
          "name": "roundId",
          "type": "uint256"
        },
        {
          "indexed": true,
          "internalType": "address",
          "name": "startedBy",
          "type": "address"
        },
        {
          "indexed": false,
          "internalType": "uint256",
          "name": "startedAt",
          "type": "uint256"
        }
      ],
      "name": "NewRound",
      "type": "event"
    },
    {
      "anonymous": false,
      "inputs": [
        {
          "indexed": true,
          "internalType": "address",
          "name": "from",
          "type": "address"
        },
        {
          "indexed": true,
          "internalType": "address",
          "name": "to",
          "type": "address"
        }
      ],
      "name": "OwnershipTransferRequested",
      "type": "event"
    },
    {
      "anonymous": false,
      "inputs": [
        {
          "indexed": true,
          "internalType": "address",
          "name": "from",
          "type": "address"
        },
        {
          "indexed": true,
          "internalType": "address",
          "name": "to",
          "type": "address"
        }
      ],
      "name": "OwnershipTransferred",
      "type": "event"
    },
    {
      "inputs": [],
      "name": "acceptOwnership",
      "outputs": [],
      "stateMutability": "nonpayable",
      "type": "function"
    },
    {
      "inputs": [],
      "name": "aggregator",
      "outputs": [
        {
          "internalType": "address",
          "name": "",
          "type": "address"
        }
      ],
      "stateMutability": "view",
      "type": "function"
    },
    {
      "inputs": [
        {
          "internalType": "address",
          "name": "aggregatorAddress",
          "type": "address"
        }
      ],
      "name": "confirmAggregator",
      "outputs": [],
      "stateMutability": "nonpayable",
      "type": "function"
    },
    {
      "inputs": [],
      "name": "decimals",
      "outputs": [
        {
          "internalType": "uint8",
          "name": "",
          "type": "uint8"
        }
      ],
      "stateMutability": "view",
      "type": "function"
    },
    {
      "inputs": [],
      "name": "description",
      "outputs": [
        {
          "internalType": "string",
          "name": "",
          "type": "string"
        }
      ],
      "stateMutability": "view",
      "type": "function"
    },
    {
      "inputs": [
        {
          "internalType": "uint256",
          "name": "roundId",
          "type": "uint256"
        }
      ],
      "name": "getAnswer",
      "outputs": [
        {
          "internalType": "int256",
          "name": "answer",
          "type": "int256"
        }
      ],
      "stateMutability": "view",
      "type": "function"
    },
    {
      "inputs": [
        {
          "internalType": "uint80",
          "name": "roundId",
          "type": "uint80"
        }
      ],
      "name": "getRoundData",
      "outputs": [
        {
          "internalType": "uint80",
          "name": "id",
          "type": "uint80"
        },
        {
          "internalType": "int256",
          "name": "answer",
          "type": "int256"
        },
        {
          "internalType": "uint256",
          "name": "startedAt",
          "type": "uint256"
        },
        {
          "internalType": "uint256",
          "name": "updatedAt",
          "type": "uint256"
        },
        {
          "internalType": "uint80",
          "name": "answeredInRound",
          "type": "uint80"
        }
      ],
      "stateMutability": "view",
      "type": "function"
    },
    {
      "inputs": [
        {
          "internalType": "uint256",
          "name": "roundId",
          "type": "uint256"
        }
      ],
      "name": "getTimestamp",
      "outputs": [
        {
          "internalType": "uint256",
          "name": "updatedAt",
          "type": "uint256"
        }
      ],
      "stateMutability": "view",
      "type": "function"
    },
    {
      "inputs": [],
      "name": "latestAnswer",
      "outputs": [
        {
          "internalType": "int256",
          "name": "answer",
          "type": "int256"
        }
      ],
      "stateMutability": "view",
      "type": "function"
    },
    {
      "inputs": [],
      "name": "latestRound",
      "outputs": [
        {
          "internalType": "uint256",
          "name": "roundId",
          "type": "uint256"
        }
      ],
      "stateMutability": "view",
      "type": "function"
    },
    {
      "inputs": [],
      "name": "latestRoundData",
      "outputs": [
        {
          "internalType": "uint80",
          "name": "id",
          "type": "uint80"
        },
        {
          "internalType": "int256",
          "name": "answer",
          "type": "int256"
        },
        {
          "internalType": "uint256",
          "name": "startedAt",
          "type": "uint256"
        },
        {
          "internalType": "uint256",
          "name": "updatedAt",
          "type": "uint256"
        },
        {
          "internalType": "uint80",
          "name": "answeredInRound",
          "type": "uint80"
        }
      ],
      "stateMutability": "view",
      "type": "function"
    },
    {
      "inputs": [],
      "name": "latestTimestamp",
      "outputs": [
        {
          "internalType": "uint256",
          "name": "updatedAt",
          "type": "uint256"
        }
      ],
      "stateMutability": "view",
      "type": "function"
    },
    {
      "inputs": [],
      "name": "owner",
      "outputs": [
        {
          "internalType": "address",
          "name": "",
          "type": "address"
        }
      ],
      "stateMutability": "view",
      "type": "function"
    },
    {
      "inputs": [
        {
          "internalType": "uint16",
          "name": "phaseId",
          "type": "uint16"
        }
      ],
      "name": "phaseAggregators",
      "outputs": [
        {
          "internalType": "address",
          "name": "",
          "type": "address"
        }
      ],
      "stateMutability": "view",
      "type": "function"
    },
    {
      "inputs": [],
      "name": "phaseId",
      "outputs": [
        {
          "internalType": "uint16",
          "name": "",
          "type": "uint16"
        }
      ],
      "stateMutability": "view",
      "type": "function"
    },
    {
      "inputs": [
        {
          "internalType": "address",
          "name": "aggregatorAddress",
          "type": "address"
        }
      ],
      "name": "proposeAggregator",
      "outputs": [],
      "stateMutability": "nonpayable",
      "type": "function"
    },
    {
      "inputs": [],
      "name": "proposedAggregator",
      "outputs": [
        {
          "internalType": "address",
          "name": "",
          "type": "address"
        }
      ],
      "stateMutability": "view",
      "type": "function"
    },
    {
      "inputs": [
        {
          "internalType": "uint80",
          "name": "roundId",
          "type": "uint80"
        }
      ],
      "name": "proposedGetRoundData",
      "outputs": [
        {
          "internalType": "uint80",
          "name": "id",
          "type": "uint80"
        },
        {
          "internalType": "int256",
          "name": "answer",
          "type": "int256"
        },
        {
          "internalType": "uint256",
          "name": "startedAt",
          "type": "uint256"
        },
        {
          "internalType": "uint256",
          "name": "updatedAt",
          "type": "uint256"
        },
        {
          "internalType": "uint80",
          "name": "answeredInRound",
          "type": "uint80"
        }
      ],
      "stateMutability": "view",
      "type": "function"
    },
    {
      "inputs": [],
      "name": "proposedLatestRoundData",
      "outputs": [
        {
          "internalType": "uint80",
          "name": "id",
          "type": "uint80"
        },
        {
          "internalType": "int256",
          "name": "answer",
          "type": "int256"
        },
        {
          "internalType": "uint256",
          "name": "startedAt",
          "type": "uint256"
        },
        {
          "internalType": "uint256",
          "name": "updatedAt",
          "type": "uint256"
        },
        {
          "internalType": "uint80",
          "name": "answeredInRound",
          "type": "uint80"
        }
      ],
      "stateMutability": "view",
      "type": "function"
    },
    {
      "inputs": [
        {
          "internalType": "address",
          "name": "to",
          "type": "address"
        }
      ],
      "name": "transferOwnership",
      "outputs": [],
      "stateMutability": "nonpayable",
      "type": "function"
    },
    {
      "inputs": [],
      "name": "version",
      "outputs": [
        {
          "internalType": "uint256",
          "name": "",
          "type": "uint256"
        }
      ],
      "stateMutability": "view",
      "type": "function"
    }
  ],
  "bytecode": "0x60806040523480156200001157600080fd5b50604051620019cd380380620019cd8339810160408190526200003491620001fe565b33806000816200008b5760405162461bcd60e51b815260206004820152601860248201527f43616e6e6f7420736574206f776e657220746f207a65726f000000000000000060448201526064015b60405180910390fd5b600080546001600160a01b0319166001600160a01b0384811691909117909155811615620000be57620000be81620000d9565b505050620000d2816200018560201b60201c565b5062000265565b6001600160a01b038116331415620001345760405162461bcd60e51b815260206004820152601760248201527f43616e6e6f74207472616e7366657220746f2073656c66000000000000000000604482015260640162000082565b600180546001600160a01b0319166001600160a01b0383811691821790925560008054604051929316917fed8889f560326eb138920d842192f0eb3dd22b4f139c87a2c57538e05bae12789190a350565b6004546000906200019c9061ffff16600162000230565b60408051808201825261ffff9092168083526001600160a01b039094166020928301819052600480546201000083026001600160b01b031990911687171790556000948552600390925290922080546001600160a01b03191690921790915550565b6000602082840312156200021157600080fd5b81516001600160a01b03811681146200022957600080fd5b9392505050565b600061ffff8083168185168083038211156200025c57634e487b7160e01b600052601160045260246000fd5b01949350505050565b61175880620002756000396000f3fe608060405234801561001057600080fd5b50600436106101775760003560e01c80638da5cb5b116100d8578063b633620c1161008c578063f2fde38b11610066578063f2fde38b14610357578063f8a2abd31461036a578063feaf968c1461037d57600080fd5b8063b633620c146102ec578063c1597304146102ff578063e8c4be301461033957600080fd5b80639a6fc8f5116100bd5780639a6fc8f5146102b3578063a928c096146102c6578063b5ab58dc146102d957600080fd5b80638da5cb5b1461028d5780638f6b4d91146102ab57600080fd5b80636001ac531161012f5780637284e416116101145780637284e4161461026657806379ba50971461027b5780638205bf6a1461028557600080fd5b80636001ac5314610214578063668a0f021461025e57600080fd5b806350d25bcd1161016057806350d25bcd146101e057806354fd4d50146101f657806358303b10146101fe57600080fd5b8063245a7bfc1461017c578063313ce567146101c6575b600080fd5b60045462010000900473ffffffffffffffffffffffffffffffffffffffff165b60405173ffffffffffffffffffffffffffffffffffffffff90911681526020015b60405180910390f35b6101ce610385565b60405160ff90911681526020016101bd565b6101e8610420565b6040519081526020016101bd565b6101e86104b6565b60045460405161ffff90911681526020016101bd565b6102276102223660046112cc565b610528565b6040805169ffffffffffffffffffff968716815260208101959095528401929092526060830152909116608082015260a0016101bd565b6101e8610667565b61026e610732565b6040516101bd9190611320565b6102836107ea565b005b6101e86108e7565b60005473ffffffffffffffffffffffffffffffffffffffff1661019c565b610227610959565b6102276102c13660046112cc565b610a85565b6102836102d4366004611371565b610b88565b6101e86102e73660046113a7565b610cc2565b6101e86102fa3660046113a7565b610dd7565b61019c61030d3660046113c0565b61ffff1660009081526003602052604090205473ffffffffffffffffffffffffffffffffffffffff1690565b60025473ffffffffffffffffffffffffffffffffffffffff1661019c565b610283610365366004611371565b610ea6565b610283610378366004611371565b610eba565b610227610f40565b6000600460000160029054906101000a900473ffffffffffffffffffffffffffffffffffffffff1673ffffffffffffffffffffffffffffffffffffffff1663313ce5676040518163ffffffff1660e01b8152600401602060405180830381865afa1580156103f7573d6000803e3d6000fd5b505050506040513d601f19601f8201168201806040525081019061041b91906113e4565b905090565b6000600460000160029054906101000a900473ffffffffffffffffffffffffffffffffffffffff1673ffffffffffffffffffffffffffffffffffffffff166350d25bcd6040518163ffffffff1660e01b8152600401602060405180830381865afa158015610492573d6000803e3d6000fd5b505050506040513d601f19601f8201168201806040525081019061041b9190611407565b6000600460000160029054906101000a900473ffffffffffffffffffffffffffffffffffffffff1673ffffffffffffffffffffffffffffffffffffffff166354fd4d506040518163ffffffff1660e01b8152600401602060405180830381865afa158015610492573d6000803e3d6000fd5b600254600090819081908190819073ffffffffffffffffffffffffffffffffffffffff166105b7576040517f08c379a000000000000000000000000000000000000000000000000000000000815260206004820152601e60248201527f4e6f2070726f706f7365642061676772656761746f722070726573656e74000060448201526064015b60405180910390fd5b6002546040517f9a6fc8f500000000000000000000000000000000000000000000000000000000815269ffffffffffffffffffff8816600482015273ffffffffffffffffffffffffffffffffffffffff90911690639a6fc8f59060240160a060405180830381865afa158015610631573d6000803e3d6000fd5b505050506040513d601f19601f820116820180604052508101906106559190611420565b939a9299509097509550909350915050565b6040805180820182526004805461ffff81168084526201000090910473ffffffffffffffffffffffffffffffffffffffff16602080850182905285517f668a0f0200000000000000000000000000000000000000000000000000000000815295516000966107209563668a0f02938282019390929091908290030181865afa1580156106f7573d6000803e3d6000fd5b505050506040513d601f19601f8201168201806040525081019061071b9190611407565b61102d565b69ffffffffffffffffffff1691505090565b6060600460000160029054906101000a900473ffffffffffffffffffffffffffffffffffffffff1673ffffffffffffffffffffffffffffffffffffffff16637284e4166040518163ffffffff1660e01b8152600401600060405180830381865afa1580156107a4573d6000803e3d6000fd5b505050506040513d6000823e601f3d9081017fffffffffffffffffffffffffffffffffffffffffffffffffffffffffffffffe016820160405261041b91908101906114a7565b60015473ffffffffffffffffffffffffffffffffffffffff16331461086b576040517f08c379a000000000000000000000000000000000000000000000000000000000815260206004820152601660248201527f4d7573742062652070726f706f736564206f776e65720000000000000000000060448201526064016105ae565b60008054337fffffffffffffffffffffffff00000000000000000000000000000000000000008083168217845560018054909116905560405173ffffffffffffffffffffffffffffffffffffffff90921692909183917f8be0079c531659141344cd1fd0a4f28419497f9722a3daafe3b4186f6b6457e091a350565b6000600460000160029054906101000a900473ffffffffffffffffffffffffffffffffffffffff1673ffffffffffffffffffffffffffffffffffffffff16638205bf6a6040518163ffffffff1660e01b8152600401602060405180830381865afa158015610492573d6000803e3d6000fd5b600254600090819081908190819073ffffffffffffffffffffffffffffffffffffffff166109e3576040517f08c379a000000000000000000000000000000000000000000000000000000000815260206004820152601e60248201527f4e6f2070726f706f7365642061676772656761746f722070726573656e74000060448201526064016105ae565b600260009054906101000a900473ffffffffffffffffffffffffffffffffffffffff1673ffffffffffffffffffffffffffffffffffffffff1663feaf968c6040518163ffffffff1660e01b815260040160a060405180830381865afa158015610a50573d6000803e3d6000fd5b505050506040513d601f19601f82011682018060405250810190610a749190611420565b945094509450945094509091929394565b6000806000806000806000610aa88869ffffffffffffffffffff16604081901c91565b61ffff8216600090815260036020526040908190205490517f9a6fc8f500000000000000000000000000000000000000000000000000000000815267ffffffffffffffff8316600482015292945090925073ffffffffffffffffffffffffffffffffffffffff1690639a6fc8f59060240160a060405180830381865afa158015610b36573d6000803e3d6000fd5b505050506040513d601f19601f82011682018060405250810190610b5a9190611420565b939a50919850965094509250610b74878787878787611051565b939c929b5090995097509095509350505050565b610b90611087565b60025473ffffffffffffffffffffffffffffffffffffffff828116911614610c14576040517f08c379a000000000000000000000000000000000000000000000000000000000815260206004820152601b60248201527f496e76616c69642070726f706f7365642061676772656761746f72000000000060448201526064016105ae565b600454600280547fffffffffffffffffffffffff000000000000000000000000000000000000000016905562010000900473ffffffffffffffffffffffffffffffffffffffff16610c648261110a565b8173ffffffffffffffffffffffffffffffffffffffff168173ffffffffffffffffffffffffffffffffffffffff167f33745f67a407dcb785417f9c123dd3641479a102674b6e35c1f10975625b90e960405160405180910390a35050565b60006001610cd2601060406115a1565b610cdd9060026116d9565b610ce791906116e5565b821115610cf657506000919050565b61ffff604083811c918216600090815260036020522054839073ffffffffffffffffffffffffffffffffffffffff1680610d3557506000949350505050565b6040517fb5ab58dc00000000000000000000000000000000000000000000000000000000815267ffffffffffffffff8316600482015273ffffffffffffffffffffffffffffffffffffffff82169063b5ab58dc906024015b602060405180830381865afa158015610daa573d6000803e3d6000fd5b505050506040513d601f19601f82011682018060405250810190610dce9190611407565b95945050505050565b60006001610de7601060406115a1565b610df29060026116d9565b610dfc91906116e5565b821115610e0b57506000919050565b61ffff604083811c918216600090815260036020522054839073ffffffffffffffffffffffffffffffffffffffff1680610e4a57506000949350505050565b6040517fb633620c00000000000000000000000000000000000000000000000000000000815267ffffffffffffffff8316600482015273ffffffffffffffffffffffffffffffffffffffff82169063b633620c90602401610d8d565b610eae611087565b610eb7816111be565b50565b610ec2611087565b600280547fffffffffffffffffffffffff00000000000000000000000000000000000000001673ffffffffffffffffffffffffffffffffffffffff83811691821790925560045460405191926201000090910416907fc0f151710f03d713b71d9970cee0d5b11ddc9a7552abaa3f6ee818010f21600d90600090a350565b6040805180820182526004805461ffff8116835262010000900473ffffffffffffffffffffffffffffffffffffffff166020830181905283517ffeaf968c000000000000000000000000000000000000000000000000000000008152935160009485948594859485949293909263feaf968c928281019260a09291908290030181865afa158015610fd5573d6000803e3d6000fd5b505050506040513d601f19601f82011682018060405250810190610ff99190611420565b8551949a509298509096509450925061101b9087908790879087908790611051565b95509550955095509550509091929394565b69ffff0000000000000000604083901b1667ffffffffffffffff8216175b92915050565b6000806000806000611063868c61102d565b8a8a8a6110708a8c61102d565b939f929e50909c509a509098509650505050505050565b60005473ffffffffffffffffffffffffffffffffffffffff163314611108576040517f08c379a000000000000000000000000000000000000000000000000000000000815260206004820152601660248201527f4f6e6c792063616c6c61626c65206279206f776e65720000000000000000000060448201526064016105ae565b565b60045460009061111f9061ffff1660016116fc565b60408051808201825261ffff90921680835273ffffffffffffffffffffffffffffffffffffffff9094166020928301819052600480546201000083027fffffffffffffffffffff0000000000000000000000000000000000000000000090911687171790556000948552600390925290922080547fffffffffffffffffffffffff00000000000000000000000000000000000000001690921790915550565b73ffffffffffffffffffffffffffffffffffffffff811633141561123e576040517f08c379a000000000000000000000000000000000000000000000000000000000815260206004820152601760248201527f43616e6e6f74207472616e7366657220746f2073656c6600000000000000000060448201526064016105ae565b600180547fffffffffffffffffffffffff00000000000000000000000000000000000000001673ffffffffffffffffffffffffffffffffffffffff83811691821790925560008054604051929316917fed8889f560326eb138920d842192f0eb3dd22b4f139c87a2c57538e05bae12789190a350565b69ffffffffffffffffffff81168114610eb757600080fd5b6000602082840312156112de57600080fd5b81356112e9816112b4565b9392505050565b60005b8381101561130b5781810151838201526020016112f3565b8381111561131a576000848401525b50505050565b602081526000825180602084015261133f8160408501602087016112f0565b601f017fffffffffffffffffffffffffffffffffffffffffffffffffffffffffffffffe0169190910160400192915050565b60006020828403121561138357600080fd5b813573ffffffffffffffffffffffffffffffffffffffff811681146112e957600080fd5b6000602082840312156113b957600080fd5b5035919050565b6000602082840312156113d257600080fd5b813561ffff811681146112e957600080fd5b6000602082840312156113f657600080fd5b815160ff811681146112e957600080fd5b60006020828403121561141957600080fd5b5051919050565b600080600080600060a0868803121561143857600080fd5b8551611443816112b4565b80955050602086015193506040860151925060608601519150608086015161146a816112b4565b809150509295509295909350565b7f4e487b7100000000000000000000000000000000000000000000000000000000600052604160045260246000fd5b6000602082840312156114b957600080fd5b815167ffffffffffffffff808211156114d157600080fd5b818401915084601f8301126114e557600080fd5b8151818111156114f7576114f7611478565b604051601f82017fffffffffffffffffffffffffffffffffffffffffffffffffffffffffffffffe0908116603f0116810190838211818310171561153d5761153d611478565b8160405282815287602084870101111561155657600080fd5b6115678360208301602088016112f0565b979650505050505050565b7f4e487b7100000000000000000000000000000000000000000000000000000000600052601160045260246000fd5b600082198211156115b4576115b4611572565b500190565b600181815b8085111561161257817fffffffffffffffffffffffffffffffffffffffffffffffffffffffffffffffff048211156115f8576115f8611572565b8085161561160557918102915b93841c93908002906115be565b509250929050565b6000826116295750600161104b565b816116365750600061104b565b816001811461164c576002811461165657611672565b600191505061104b565b60ff84111561166757611667611572565b50506001821b61104b565b5060208310610133831016604e8410600b8410161715611695575081810a61104b565b61169f83836115b9565b807fffffffffffffffffffffffffffffffffffffffffffffffffffffffffffffffff048211156116d1576116d1611572565b029392505050565b60006112e9838361161a565b6000828210156116f7576116f7611572565b500390565b600061ffff80831681851680830382111561171957611719611572565b0194935050505056fea26469706673582212202846e8b50368da3e419a31af68aa7626f7cea62a326b73743a84d1d8f3f62a2864736f6c634300080a0033",
  "linkReferences": {},
  "deployedLinkReferences": {}
}